:1000D4002500000031000000270000000900000096
:1000E40018000000170000000300000010000000CA
:1000F400230000001C000000000000002E0000008F
:1001040024000000000000002600000000000000A1
:100114002900000000000000000000002C00000086
:100124002200000028000000250000001300000049
:1001340015000000300000002D0000000000000049
:1001440011000000000000000E000000000000008C
:10015400000000002B0000001F0000002A00000027
:10016400000000002F00000000000000000000005C
:10017400000000000000000000000000000000007B
:100184000000000000000000040000000000000067
:100194000600000000000000000000000500000050
:1001A400000000000D00000000000000000000003E
:1001B40000000000000000000A0000000000000031
:1001C4000000000000000000000000000B00000020
:1001D4000F0000000000000000000000000000000C
:1001E400000000001A0000000C00000014000000D1
:1001F400000000001D0000000000000016000000C8
:100204001E000000210000000700000000000000A4
:100214001B00000012000000190000000000000094
:1002240008000000000000000000000020000000A2
:1002340000000000000000000000000000000000BA
:10024400000000001008000000000000030005008A
:10025400000000000C1400000000000003000C006B
:1002640009020000901500000000000010000E00BC
:100274000D000000410900007C0000001200050090
:10028400D30100000C1400000000000010000C005A
:10029400250000008908000002000000120005008B
:1002A400D8000000190A0000160000001200050022
:1002B40055000000BD0900001C00000012000500EC
:1002C40010010000430A00000A00000012000500AB
:1002D400680100004D0E0000C0000000120005007F
:1002E40026020000901500000000000010000E001F
:1002F400C601000000000000000000001000F1FF33
:10030400B1010000801500000400000011000D0080
:10031400BD000000DD0900001E0000001200050001
:10032400EF0100000C1400000000000010000D009C
:100334005C010000770800000200000022000500B4
:10034400270100004D0A00002C00000012000500E7
:100354006A000000D9090000040000001200050032
:10036400A7000000310A000002000000120005008E
:1003740083000000E1080000600000001200050096
:10038400300000008B08000002000000120005008D
:10039400BA01000000000000000000001000F1FF9E
:1003A40022020000901500000000000010000E0062
:1003B400E20100000C1400000000000010000C001A
:1003C400FD0100008C1500000000000010000D006D
:1003D4003A020000901500000000000010000E001A
:1003E400CA000000FB0900001E0000001200050006
:1003F4003C0000008D08000002000000120005000F
:10040400490000008F08000052000000120005009F
:1004140089010000841500000400000011000D0093
:1004240020010000250F000010000000120005004C
:100434001B020000901500000000000010000E00D8
:10044400FA0000003B0A000008000000120005004A
:10045400470100004B0E00000200000012000500DE
:1004640032010000D90A00007003000012000500E8
:100474005101000075080000020000002200050080
:10048400EA000000330A0000080000001200050022
:1004940001000000E80F00009801000011000700AF
:1004A400A301000000000000000000001000000094
:1004B400170000007B0800000E0000001200050079
:1004C40032020000901500000000000010000E0031
:1004D400980000002F0A000002000000120005002E
:1004E40021020000901500000000000010000E0022
:1004F40074010000790A0000600000001200050089
:100504009201000000000000000000001000000044
:1005140010020000901500000000000010000E0002
:1005240081010000881500000400000011000D0086
:100534003E010000490E0000020000001200050008
:1005440000756E69745F68656164657200756E69D3
:10055400745F696E697400756E69745F7465617245
:10056400646F776E00756E69745F7265736574008D
:10057400756E69745F726573756D6500756E697407
:100584005F73757370656E6400756E69745F726510
:100594006E64657200756E69745F6765745F70611F
:1005A40072616D5F76616C756500756E69745F6705
:1005B40065745F706172616D5F7374725F76616C94
:1005C400756500756E69745F7365745F70617261DF
:1005D4006D5F76616C756500756E69745F736574C3
:1005E4005F74656D706F00756E69745F74656D70AE
:1005F4006F5F347070716E5F7469636B00756E69E0
:10060400745F6E6F74655F6F6E00756E69745F6E94
:100614006F74655F6F666600756E69745F616C6C9C
:100624005F6E6F74655F6F666600756E69745F7088
:10063400697463685F62656E6400756E69745F6394
:1006440068616E6E656C5F70726573737572650058
:10065400756E69745F6166746572746F7563680042
:100664006D656D736574005F686F6F6B5F696E694C
:1006740074005F686F6F6B5F6379636C65005F68BC
:100684006F6F6B5F6F6E005F686F6F6B5F6F666637
:10069400005F686F6F6B5F6D757465005F686F6F87
:1006A4006B5F76616C7565005F686F6F6B5F70611F
:1006B40072616D005F5A3868797065724C464F7686
:1006C400006C666F5F6F7574006C666F325F6F7578
:1006D40074006D6964695F746F5F687A5F6C7574C8
:1006E4005F660077745F73696E655F6C75745F66CF
:1006F400006C666F5368617065005F5F6865617068
:100704005F73697A65005F5F737461636B5F7369BC
:100714007A65005F5F646174615F73746172745FB2
:100724005F005F5F646174615F656E645F5F005F5B
:100734005F6273735F73746172745F5F005F5F62A3
:1007440073735F656E645F5F005F5F48454150008F
:100754005F5F484541505F454E44005F7374616379
:100764006B5F656E64005F737461636B5F61646487
:1007740072005F5F737461636B005F5F53505F4926
:040784004E49540086
:100788001813000017000000F4130000150D0000F6
:10079800F8130000151E0000FC13000015260000C9
:1007A800001400001527000004140000152D000097
:0807B80008140000152F0000D9
:1007C000CC130000160A0000D01300001610000021
:1007D000D413000016110000D813000016140000F6
:1007E000DC130000161F0000E013000016220000BA
:1007F000E413000016230000E81300001624000094
:10080000EC130000162C0000F0130000163000005E
:100810006FF01F0070477047704770477047704710
:10082000002070470020704770477047704770473E
:1008300070477047704770477047000010B510222E
:100840000021044600F09EFB054B7B441B682BB146
:100850001A8919685B68216063602281204610BD97
:10086000BE0B0000704708469200002100F08ABBD2
:1008700070477047704770477047024B00227B44B7
:100880001A6070478A0B000070477047704770B558
:10089000402A124D86B00C4628BF40227D4402A853
:1008A000164604350190FFF7C9FF324629460198E4
:1008B00004EB860600F076FB23469FED077AB342F1
:1008C00008D0F5EC017AF8EEE77A67EE877AE3EC88
:1008D000017AF4E706B070BD000000306C0B000038
:1008E00008B50928134B7B441ED8134A9B5803EBC9
:1008F0004013B3F93820B3F93A30994203DA8A4207
:100900001346B8BF0B460D4A7A4402EB8002C2F888
:10091000043150B101280AD00238C2B2052A03D8E6
:1009200080B299B200F00EFB08BD0620F9E707205F
:10093000F7E700BFD60A00003C000000000B0000F3
:100940001B4A38B57A4438B31A49036855586A685F
:10095000934224D1416801F4FE02B2F5003F21D157
:1009600011F4FE441ED1827B022A1ED1C27B012AD1
:100970001BD1114A00697A441060184600F0F2FA5F
:1009800005EB4413E0B20134B3F93E1000F0F2FA83
:100990000A2CF5D1002038BD6FF01F00FBE74FF0A7
:1009A000FF30F8E76FF00100F5E76FF00700F2E7BE
:1009B000780A00003C000000920A0000092806D8CE
:1009C000044B7B4403EB8000D0F804017047002007
:1009D000704700BF460A00000020704710B586B07F
:1009E000044602A824020190FFF728FF0198ADF801
:1009F0000C4000F0EFFA06B010BD10B586B004460A
:100A000002A824020190FFF719FF0198ADF80C40ED
:100A100000F0C0FA06B010BD7FB502A80190FFF744
:100A20000DFF019800F0C6FA07B05DF804FB7047AF
:100A3000704708B500F08EFA08BD08B500F08AFAD4
:100A400008BD084608B500F085FA08BD094B00222C
:100A50007B445A601A609A609A611A6100229A82F5
:100A60009A7583F82D2083F82E204FF000421A63E8
:100A70009A637047E40A0000134B144A7B449A5867
:100A8000D2ED007AF5EEC07AF1EE10FA17DB104ADB
:100A90009FED0C7A9B58D3ED007AF5EEC07AF0EE1C
:100AA000087AF1EE10FAB8BFF0EE477A094BB7EECC
:100AB000000A7B4493ED037AA7EE270A7047DFED27
:100AC000017AF3E700000000400900004800000040
:100AD00038000000820A00002DE9F0470D46CF499A
:100AE000B2EE047A8388794414461A0ADFF8308318
:100AF000D1ED106ADBB2F844B1EE006AC6EE877A37
:100B0000D1ED116ADFF81C93F9442DED0E8BDFED6A
:100B1000BDBAB7EE008A82B0D0ED008A9FEDBA9AD6
:100B2000F8EEE88A67EEAB7AFEEEC07AC1ED0D7A98
:100B3000C6EE877A07EE102ABB4ADFEDB46AB8EE3C
:100B4000C77A67EEAB7AFEEEC07AC1ED0F7AFCEEA3
:100B5000C77A37EE087A58F80260CDED017A07EED1
:100B6000903ABCEEC77A9DF80420F8EEE77A972A0F
:100B70008DED017A9DF8043028BF972267EEA67AA2
:100B8000DFEDA36A972B06EB820268EEA68A28BFE8
:100B9000972392ED00AA06EB830305EB840693ED01
:100BA000007AA24B37EE4A7A58F80330A7EE87AAAC
:100BB000DFED987A3AEE677AB5EE407AF1EE10FA08
:100BC000A8BFB0EE67AAD1ED0C7AB8EEE77A67EE6F
:100BD000267A17EE902A22F0004207EE102A37EE0E
:100BE000487A27EE277AD1ED0E7AF8EEE77A27EEEB
:100BF000067A83ED007A27EEA67A8D4B17EE102A3F
:100C000058F8033022F0004207EE902A77EEC87AB7
:100C100067EE877A67EE867AC3ED007AB54200F018
:100C2000EC8007EE104A78EECC7AF6EE00DADFF8C8
:100C300004A2B8EE477A9FED78EAFA44C7EE879AA5
:100C4000D9ED007ABCEEE77AD9E90C32B8EE477AF2
:100C5000134477EEC77AC9F83030D9E90E3267EE1F
:100C6000897A1344744ABCEEE77AC9F83830734B7A
:100C700017EE101A58F8037001F07F0387ED00CAD1
:100C800058F8022006EE901A7F2902EB830003F148
:100C90000103F8EE666A03F07F0390ED007A02EB41
:100CA000830377EEE67AD3ED006A654B76EEC76A8A
:100CB0007B44A7EEA67AD3ED017AD3ED046A77EEF2
:100CC000887A88BFB1EE477A27EE2D7A27EE877AA9
:100CD000F0EE487AE6EE8B7A27EE27BA93ED067AA5
:100CE000FCEEC77AF8EE677A37EE677A27EE097A74
:100CF000FCEEC77A17EE901A01F07F0306EE901A09
:100D00007F2902EB830003F10103F8EE666A03F02A
:100D10007F03D0ED007A02EB830237EE667A9AF811
:100D20002D30D2ED006A76EEE76AE7EE267AF0EE35
:100D300067CA88BFF1EE67CA07EE903AF8EEE77A25
:100D4000C7EE8EAA00F03EF99AED067A7AEE88AAEE
:100D50006AEE8AAA2AEE800AA0EE2B7AFCEEC77A07
:100D6000F8EE677A37EE677AFEEE007A8AED067A59
:100D7000B4EEE7BAF1EE10FA35D5FFEE00AA7AEE3E
:100D8000CBAADFF8C0A0FA449AF8153007EE903AE3
:100D9000F8EEE77A87EE8EDA00F014F9D7ED007AF4
:100DA0009AED027A77EE887AFEEEE0AA3CEE29CA46
:100DB00067EE877A9AED007AE5EC01AA67EEAC7AE5
:100DC00067EEAD7A3DEE08DA2DEE0ADAEDEE007A46
:100DD000A7EEAB7AFCEEC77AF8EE677A37EE677A61
:100DE0008AED007A1AE7B4EEEDBAF1EE10FACCBF54
:100DF00078EE4BAAF0EE4BAAC3E702B0BDEC0E8B27
:100E0000BDE8F0873EC3AE37000080438180803B61
:100E10000000003049FFB8460000C8424E0A0000FA
:100E2000C60800002C0A0000440000003800000042
:100E300048000000FA0800004000000034000000F4
:100E400084080000AE0700007047704707EE901A54
:100E50009FED257AF8EEE77A67EE877A072841D882
:100E6000DFE800F0040D161F2428313C07EE901A2D
:100E70001E4BF8EE677A7B44C3ED107A704707EE9D
:100E8000901A1B4BF8EE677A7B44C3ED117A7047DA
:100E9000B2EE047A174B7B4467EE877AC3ED017A92
:100EA0007047154B7B4483F82D107047134B7B44E0
:100EB00059757047B3EE047A114B7B4467EE877A1D
:100EC000C3ED047A70470A2359430E4B07EE901A7C
:100ED0007B44F8EEE77AC3ED027A70470A4B7B4415
:100EE000C3ED037A704700BF0820803ABE060000B9
:100EF000AC0600009E06000090060000860600007A
:100F00007A0600006406000056060000044B4FF00D
:100F1000004100227B44C3E90C12C3E90E12704762
:100F20002006000002440346934200D1704703F8B4
:040F3000011BF9E7C1
:100F340000B5DFF808E0FE445EF808FF8004000016
:100F440040F27C4CC0F2000CFC44DCF800F0FCE7FE
:100F540040F2704CC0F2000CFC44DCF800F0FCE7FA
:100F640040F2644CC0F2000CFC44DCF800F0FCE7F6
:100F740040F2584CC0F2000CFC44DCF800F0FCE7F2
:100F840040F24C4CC0F2000CFC44DCF800F0FCE7EE
:100F940040F2404CC0F2000CFC44DCF800F0FCE7EA
:100FA40040F2344CC0F2000CFC44DCF800F0FCE7E6
:100FB40040F2284CC0F2000CFC44DCF800F0FCE7E2
:100FC40040F21C4CC0F2000CFC44DCF800F0FCE7DE
:100FD40040F2104CC0F2000CFC44DCF800F0FCE7DA
:100FE8009801000004050000000002000000000055
:100FF80000000000000100004C79726520310000FB
:1010080000000000000000000000000000000000D8
:1010180000000000080000000000FF0300000000BE
:101028000000464D20446570746800000000000010
:1010380000000000000000000000FF0300000000A6
:1010480000004C464F2044657074680000000000A2
:1010580000000000000000000000640000003200F2
:1010680000004C464F203100000000000000000046
:1010780000000000000000000000640000003200D2
:1010880000004C464F203200000000000000000025
:1010980000000000000000000000640000003200B2
:1010A80000005761766520466F6C64000000000000
:1010B8000000000000000000000064000000320092
:1010C8000000464D2054756E6500000000000000C9
:1010D8000000000000000000000064000000320072
:1010E8000000506974636800000000000000000000
:1010F8000000000000000000000064000000320052
:101108000000466565646261636B000000000000D2
:1011180000000000000000000000000000000000C7
:1011280000000000000000000000000000000000B7
:1011380000000000000000000000000000000000A7
:101148000000000000000000000000000000000097
:101158000000000000000000000000000000000087
:101168000000000000000000000000000000000077
:1011780000000000000000009801000000050000C9
:101188000000020000000000000000000000000055
:10119800756E646566696E65640000000000000095
:1011A8000000000000000000000000000000000037
:1011B8000000000000000000000000000000000027
:1011C8000000000000000000000000000000000017
:1011D8000000000000000000000000000000000007
:1011E80000000000000000000000000000000000F7
:1011F80000000000000000000000000000000000E7
:1012080000000000000000000000000000000000D6
:1012180000000000000000000000000000000000C6
:1012280000000000000000000000000000000000B6
:1012380000000000000000000000000000000000A6
:101248000000000000000000000000000000000096
:101258000000000000000000000000000000000086
:101268000000000000000000000000000000000076
:101278000000000000000000000000000000000066
:101288000000000000000000000000000000000056
:101298000000000000000000000000000000000046
:1012A8000000000000000000000000000000000036
:1012B8000000000000000000000000000000000026
:1012C8000000000000000000000000000000000016
:1012D8000000000000000000000000000000000006
:1012E80000000000000000000000000000000000F6
:1012F80000000000000000000000000000000000E6
:1013080000000000000000000000000000000000D5
:041318000D0F0000B5
:1013200019000000181300001B000000040000005A
:1013300004000000D4000000050000004405000087
:1013400006000000340200000A0000004402000011
:101350000B0000001000000003000000C01300009C
:101360000200000050000000140000001100000006
:1013700017000000C00700001100000088070000EF
:1013800012000000380000001300000008000000F8
:10139000FAFFFF6F010000000000000000000000E5
:1013A000000000000000000000000000000000003D
:1013B000000000000000000000000000000000002D
:1013C000201300000000000000000000350F0000A6
:1013D000350F0000350F0000350F0000350F0000FD
:1013E000350F0000350F0000350F0000350F0000ED
:1013F000350F0000000000000000000000000000A9
:0C140000000000000000000000000000E0
:00000001FF
